:1000000029C043C042C041C040C03FC03EC03DC007
:100010003CC03BC03AC04CC038C037C0CBC035C074
:1000200034C033C032C031C030C02FC02EC02DC04C
:100030002CC02BC07AC07FC084C089C08EC093C042
:1000400098C09DC0E1C005C129C14DC171C195C114
:10005000B9C1E1C111241FBECFEFD2E0DEBFCDBFD9
:1000600011E0A0E0B1E0E2E1F5E002C005900D9200
:10007000A03BB107D9F711E0A0EBB1E001C01D92A0
:10008000A43BB107E1F702D042C2BACFDF93CF93CE
:10009000CDB7DEB78AE290E02FEFFC01208384E247
:1000A00090E02FEFFC01208317D2FED17894FFCF90
:1000B0001F920F920FB60F9211242F933F934F93DD
:1000C0005F938F939F93AF93BF93EF93FF93DF93D0
:1000D000CF93CDB7DEB78091B2019091B301019675
:1000E0009093B3018093B2018091B2019091B301DA
:1000F0008830910521F41092B3011092B2018091E1
:10010000B2019091B301AA2797FDA095BA2F40E0C4
:1001100050E027E030E0841B950B28173907A8F141
:10012000865E9F4F8F939F93089587E490E021E62A
:10013000FC0120832AC087E490E020E3FC012083B7
:1001400024C087E490E029E0FC0120831EC087E4FE
:1001500090E023E1FC01208318C087E490E029E0CF
:10016000FC01208312C087E490E024E0FC0120839E
:100170000CC087E490E024E0FC01208306C087E403
:1001800090E021E0FC01208300001092B101109268
:10019000B001CF91DF91FF91EF91BF91AF919F910E
:1001A0008F915F914F913F912F910F900FBE0F90C4
:1001B0001F9018951F920F920FB60F9211242F9334
:1001C0003F934F935F938F939F93AF93BF93EF931F
:1001D000FF93DF93CF93CDB7DEB78091B2019091BB
:1001E000B301AA2797FDA095BA2F40E050E027E081
:1001F00030E0841B950B2817390708F444C18E5D45
:100200009F4F8F939F9308958BE290E02091B001D0
:100210003091B101220F331F205D3E4FF901208143
:100220003181FC0120838091B0019091B101019650
:100230009093B1018093B0018091B0019091B10190
:100240008034910509F010C11092B1011092B001F3
:100250001AC18BE290E02091B0013091B101220FE0
:10026000331F205D3E4FF90120813181FC01208345
:100270008091B0019091B10101969093B10180936A
:10028000B0018091B0019091B1018034910509F0E5
:10029000EDC01092B1011092B001F5C08BE290E078
:1002A0002091B0013091B101220F331F205D3E4FEC
:1002B000F90120813181FC0120838091B00190916E
:1002C000B10101969093B1018093B0018091B0018A
:1002D0009091B1018034910509F0CAC01092B1012A
:1002E0001092B001D0C08BE290E02091B00130912B
:1002F000B101220F331F205F3E4FF9012081318170
:10030000FC0120838091B0019091B10101969093FE
:10031000B1018093B0018091B0019091B101803121
:10032000910509F0A7C01092B1011092B001ABC0C5
:100330008BE290E02091B0013091B101220F331F88
:10034000205F3E4FF90120813181FC0120838091A3
:10035000B0019091B10101969093B1018093B001E9
:100360008091B0019091B1018031910509F084C074
:100370001092B1011092B00186C08BE290E0209102
:10038000B0013091B101220F331F205F3E4FF901C0
:1003900020813181FC0120838091B0019091B101D5
:1003A00001969093B1018093B0018091B00190913A
:1003B000B1018031910509F061C01092B101109234
:1003C000B00161C08BE290E02091B0013091B101A9
:1003D000220F331F20503F4FF90120813181FC0152
:1003E000208385E290E022E0FC0120838091B0012F
:1003F0009091B10101969093B1018093B0018091E9
:10040000B0019091B10188309105D1F51092B10100
:100410001092B00138C08BE290E02091B001309191
:10042000B101220F331F20503F4FF901208131814C
:10043000FC01208385E290E021E0FC012083809193
:10044000B0019091B10101969093B1018093B001F8
:100450008091B0019091B1018830910599F410928A
:10046000B1011092B0010FC000000DC000000BC020
:10047000000009C0000007C0000005C0000003C064
:10048000000001C00000CF91DF91FF91EF91BF917B
:10049000AF919F918F915F914F913F912F910F90CD
:1004A0000FBE0F901F901895DF93CF93CDB7DEB797
:1004B00081E890E02DE0FC0120838FE690E022E0CF
:1004C000FC01208388E890E02FEF3FE4FC013183BA
:1004D0002083CF91DF910895DF93CF93CDB7DEB71F
:1004E00084E490E022E0FC01208385E490E023E0B6
:1004F000FC0120838EE690E022E0FC01208387E46B
:1005000090E021E6FC012083CF91DF910895F894DB
:02051000FFCF1B
:100512008000DA00FF00DA008000260000002600DA
:100522008000B100DA00F500FF00F500DA00B1004A
:1005320080004F0026000B0000000B0026004F0039
:1005420080008C009800A400B000BB00C600D00060
:10055200D900E200E900F000F500F900FC00FE001D
:10056200FF00FE00FC00F900F500F000E900E200E7
:10057200D900D000C600BB00B000A40098008C00D7
:100582007F00730067005B004F00440039002F00BA
:1005920026001D0016000F000A00060003000100DD
:1005A20000000100030006000A000F0016001D00F3
:1005B20026002F00390044004F005B0067007300E3
:00000001FF
