:1000000019C02BC02AC029C028C027C026C025C0BF
:1000100024C023C022C03EC020C01FC01EC01DC0BF
:100020001CC01BC01AC019C018C017C016C015C00C
:1000300014C013C011241FBECFEFD2E0DEBFCDBF6E
:1000400011E0A0E0B1E0E6E1F1E002C005900D9220
:10005000A232B107D9F702D05CC0D2CFDF93CF93E1
:10006000CDB7DEB78AE290E02FEFFC01208381E874
:1000700090E029E0FC0120838FE690E022E0FC0183
:10008000208388E890E02EE430E0FC013183208377
:100090007894FFCF1F920F920FB60F9211242F93D7
:1000A0003F938F939F93EF93FF93DF93CF93CDB7BE
:1000B000DEB78BE290E02091000130910101220F28
:1000C000331F2E5F3E4FF90120813181FC012083D7
:1000D000809100019091010101969093010180931C
:1000E000000180910001909101018031910521F47E
:1000F0001092010110920001CF91DF91FF91EF91D9
:100100009F918F913F912F910F900FBE0F901F9055
:060110001895F894FFCFE2
:1001160001008000B100DA00F500FF00F500DA000A
:10012600B10080004F0026000B0000000B002600E7
:020136004F0078
:00000001FF
