:1000000029C043C042C041C040C03FC03EC03DC007
:100010003CC03BC03AC056C038C037C0E1C035C054
:1000200034C033C032C031C030C02FC02EC02DC04C
:100030002CC02BC090C095C09AC09FC0A4C0A9C0BE
:10004000AEC0B3C0F7C01BC13FC163C187C1ABC164
:10005000CFC1F2C111241FBECFEFD2E0DEBFCDBFB2
:1000600011E0A0E0B1E0EAE2F5E002C005900D92F7
:10007000A03BB107D9F711E0A0EBB1E001C01D92A0
:10008000A63BB107E1F702D04EC2BACFDF93CF93C0
:10009000CDB7DEB78AE290E02FEFFC01208387E244
:1000A00090E0FC01108224D20BD278940000809161
:1000B000B4019091B5010097D1F31092B50110925F
:1000C000B401F3CF1F920F920FB60F9211242F930A
:1000D0003F934F935F938F939F93AF93BF93EF9310
:1000E000FF93DF93CF93CDB7DEB78091B2019091AC
:1000F000B30101969093B3018093B2018091B20154
:100100009091B3018830910581F41092B30110925F
:10011000B2011092B1011092B001F89481E090E028
:100120009093B5018093B4014AC08091B20190913F
:10013000B301AA2797FDA095BA2F40E050E027E031
:1001400030E0841B950B28173907A8F1865E9F4F76
:100150008F939F93089587E490E021E6FC0120832C
:100160002AC087E490E020E3FC01208324C087E4D8
:1001700090E029E0FC0120831EC087E490E023E1A9
:10018000FC01208318C087E490E029E0FC01208373
:1001900012C087E490E024E0FC0120830CC087E4D7
:1001A00090E024E0FC01208306C087E490E021E099
:1001B000FC01208300001092B1011092B001CF9198
:1001C000DF91FF91EF91BF91AF919F918F915F91DF
:1001D0004F913F912F910F900FBE0F901F90189548
:1001E0001F920F920FB60F9211242F933F934F93AC
:1001F0005F938F939F93AF93BF93EF93FF93DF939F
:10020000CF93CDB7DEB78091B2019091B301AA2709
:1002100097FDA095BA2F40E050E027E030E0841B26
:10022000950B2817390708F43AC18E5D9F4F8F93BD
:100230009F9308958BE290E02091B0013091B1013D
:10024000220F331F205D3E4FF90120813181FC01D7
:1002500020838091B0019091B10101969093B101FA
:100260008093B0018091B0019091B10180349105EB
:1002700009F006C11092B1011092B00110C18BE2D9
:1002800090E02091B0013091B101220F331F205D29
:100290003E4FF90120813181FC0120838091B00122
:1002A0009091B10101969093B1018093B00180913A
:1002B000B0019091B1018034910509F0E3C0109232
:1002C000B1011092B001EBC08BE290E02091B0013F
:1002D0003091B101220F331F205D3E4FF901208183
:1002E0003181FC0120838091B0019091B101019690
:1002F0009093B1018093B0018091B0019091B101D0
:100300008034910509F0C0C01092B1011092B00183
:10031000C6C08BE290E02091B0013091B101220F74
:10032000331F205F3E4FF90120813181FC01208382
:100330008091B0019091B10101969093B1018093A9
:10034000B0018091B0019091B1018031910509F027
:100350009DC01092B1011092B001A1C08BE290E05B
:100360002091B0013091B101220F331F205F3E4F29
:10037000F90120813181FC0120838091B0019091AD
:10038000B10101969093B1018093B0018091B001C9
:100390009091B1018031910509F07AC01092B101BC
:1003A0001092B0017CC08BE290E02091B0013091BE
:1003B000B101220F331F205F3E4FF90120813181AF
:1003C000FC0120838091B0019091B101019690933E
:1003D000B1018093B0018091B0019091B101803161
:1003E000910509F057C01092B1011092B00157C0A9
:1003F0008BE290E02091B0013091B101220F331FC8
:1004000020503F4FF90120813181FC0120838091F0
:10041000B0019091B10101969093B1018093B00128
:100420008091B0019091B10188309105A9F51092A9
:10043000B1011092B00133C08BE290E02091B00185
:100440003091B101220F331F20503F4FF90120811D
:100450003181FC0120838091B0019091B10101961E
:100460009093B1018093B0018091B0019091B1015E
:100470008830910599F41092B1011092B0010FC02B
:1004800000000DC000000BC0000009C0000007C044
:10049000000005C0000003C0000001C00000CF91B3
:1004A000DF91FF91EF91BF91AF919F918F915F91FC
:1004B0004F913F912F910F900FBE0F901F90189565
:1004C000DF93CF93CDB7DEB781E890E02DE0FC015C
:1004D00020838FE690E022E0FC01208388E890E012
:1004E0002FEF3FE4FC0131832083CF91DF9108950A
:1004F000DF93CF93CDB7DEB784E490E022E0FC0138
:10050000208385E490E023E0FC0120838EE690E0E8
:1005100022E0FC01208387E490E021E6FC012083B7
:0A052000CF91DF910895F894FFCF0A
:10052A008000DA00FF00DA008000260000002600C2
:10053A008000B100DA00F500FF00F500DA00B10032
:10054A0080004F0026000B0000000B0026004F0021
:10055A0080008C009800A400B000BB00C600D00048
:10056A00D900E200E900F000F500F900FC00FE0005
:10057A00FF00FE00FC00F900F500F000E900E200CF
:10058A00D900D000C600BB00B000A40098008C00BF
:10059A007F00730067005B004F00440039002F00A2
:1005AA0026001D0016000F000A00060003000100C5
:1005BA0000000100030006000A000F0016001D00DB
:1005CA0026002F00390044004F005B0067007300CB
:00000001FF
