:100000002BC045C044C043C042C041C040C03FC0F7
:100010003EC03DC03CC080C03AC039C03EC137C0C0
:1000200036C035C034C033C032C031C030C02FC03C
:100030002EC02DC0BFC0C8C0D2C0DBC0E5C0EEC05E
:10004000F8C001C10BC153C157C17BC19FC1C3C11E
:10005000E7C10BC22FC252C211241FBECFEFD2E0A4
:10006000DEBFCDBF11E0A0E0B1E0EEEEF5E002C0F2
:1000700005900D92A03BB107D9F711E0A0EBB1E0DC
:1000800001C01D92A63BB107E1F702D0AEC2B8CFC6
:10009000DF93CF93CDB7DEB78AE290E02FEFFC017C
:1000A000208387E290E0FC01108284E290E02FEF51
:1000B000FC0120837FD266D287E290E0FC011082AF
:1000C00005C085E290E021E0FC01208386E290E01B
:1000D000FC018081882F90E080729070009789F3F6
:1000E00087E290E02FEFFC01208388E290E0FC01A2
:1000F0001082789405C085E290E022E0FC01208324
:100100008091B4019091B5010097A9F3F8941092F1
:10011000B5011092B401D0CF1F920F920FB60F927B
:1001200011242F933F934F935F938F939F93AF939C
:10013000BF93EF93FF93DF93CF93CDB7DEB780915B
:10014000B2019091B30101969093B3018093B201F3
:100150008091B2019091B3018A309105A1F488E2B7
:1001600090E021E0FC0120831092B3011092B201D3
:100170001092B1011092B00181E090E09093B5012E
:100180008093B40179C08091B2019091B301AA2704
:1001900097FDA095BA2F41E050E028E030E0841BA5
:1001A000950B2817390708F463C0865E9F4F8F931D
:1001B0009F93089587E490E02FEFFC01208388E26D
:1001C00090E0FC01108254C087E490E021E6FC013D
:1001D000208388E290E020E1FC01208349C087E48D
:1001E00090E020E3FC01208388E290E0FC01108293
:1001F0003FC087E490E029E0FC01208388E290E0A2
:1002000020E1FC01208334C087E490E023E1FC017D
:10021000208388E290E0FC0110822AC087E490E00D
:1002200029E0FC01208388E290E020E1FC012083AA
:100230001FC087E490E024E0FC01208388E290E086
:10024000FC01108215C087E490E024E0FC012083CB
:1002500088E290E020E1FC0120830AC087E490E07E
:1002600021E0FC01208388E290E0FC011082000084
:100270001092B1011092B001CF91DF91FF91EF91F7
:10028000BF91AF919F918F915F914F913F912F912E
:100290000F900FBE0F901F9018951F920F920FB6E0
:1002A0000F9211242F933F934F935F938F939F93BC
:1002B000AF93BF93EF93FF93DF93CF93CDB7DEB7A9
:1002C0008091B2019091B301AA2797FDA095BA2F12
:1002D00041E050E028E030E0841B950B28173907F7
:1002E00008F43FC18D5D9F4F8F939F9308958BE2DC
:1002F00090E0FC01108235C18BE290E02091B001CA
:100300003091B101220F331F205D3E4FF901208152
:100310003181FC0120838091B0019091B10101965F
:100320009093B1018093B0018091B0019091B1019F
:100330008034910509F006C11092B1011092B0010C
:1003400010C18BE290E02091B0013091B101220FF9
:10035000331F205D3E4FF90120813181FC01208354
:100360008091B0019091B10101969093B101809379
:10037000B0018091B0019091B1018034910509F0F4
:10038000E3C01092B1011092B001EBC08BE290E09B
:100390002091B0013091B101220F331F205D3E4FFB
:1003A000F90120813181FC0120838091B00190917D
:1003B000B10101969093B1018093B0018091B00199
:1003C0009091B1018034910509F0C0C01092B10143
:1003D0001092B001C6C08BE290E02091B001309144
:1003E000B101220F331F205F3E4FF901208131817F
:1003F000FC0120838091B0019091B101019690930E
:10040000B1018093B0018091B0019091B101803130
:10041000910509F09DC01092B1011092B001A1C0E8
:100420008BE290E02091B0013091B101220F331F97
:10043000205F3E4FF90120813181FC0120838091B2
:10044000B0019091B10101969093B1018093B001F8
:100450008091B0019091B1018031910509F07AC08D
:100460001092B1011092B0017CC08BE290E020911B
:10047000B0013091B101220F331F205F3E4FF901CF
:1004800020813181FC0120838091B0019091B101E4
:1004900001969093B1018093B0018091B001909149
:1004A000B1018031910509F057C01092B10110924D
:1004B000B00157C08BE290E02091B0013091B101C2
:1004C000220F331F20503F4FF90120813181FC0161
:1004D00020838091B0019091B10101969093B10178
:1004E0008093B0018091B0019091B1018830910565
:1004F000A9F51092B1011092B00133C08BE290E0E7
:100500002091B0013091B101220F331F20503F4F95
:10051000F90120813181FC0120838091B00190910B
:10052000B10101969093B1018093B0018091B00127
:100530009091B1018830910599F41092B101109217
:10054000B0010FC000000DC000000BC0000009C0CA
:10055000000007C0000005C0000003C0000001C08B
:100560000000CF91DF91FF91EF91BF91AF919F91EB
:100570008F915F914F913F912F910F900FBE0F90F0
:100580001F901895DF93CF93CDB7DEB781E890E049
:100590002DE0FC0120838FE690E022E0FC01208327
:1005A00088E890E02FEF3FE4FC0131832083CF9176
:1005B000DF910895DF93CF93CDB7DEB784E490E069
:1005C00022E0FC01208385E490E023E0FC0120830D
:1005D0008EE690E022E0FC01208387E490E02FEF9C
:0E05E000FC012083CF91DF910895F894FFCFA6
:1005EE008000DA00FF00DA008000260000002600FE
:1005FE008000B100DA00F500FF00F500DA00B1006E
:10060E0080004F0026000B0000000B0026004F005C
:10061E0080008C009800A400B000BB00C600D00083
:10062E00D900E200E900F000F500F900FC00FE0040
:10063E00FF00FE00FC00F900F500F000E900E2000A
:10064E00D900D000C600BB00B000A40098008C00FA
:10065E007F00730067005B004F00440039002F00DD
:10066E0026001D0016000F000A0006000300010000
:10067E0000000100030006000A000F0016001D0016
:10068E0026002F00390044004F005B006700730006
:00000001FF
