:1000000019C033C032C031C030C02FC02EC02DC087
:100010002CC02BC02AC029C028C027C026C025C09C
:1000200024C023C0B7C021C07BC01FC01EC01DC0DC
:100030001CC01BC011241FBECFEFD4E0DEBFCDBF5C
:1000400011E0A0E0B1E0E0EFF1E002C005900D9218
:10005000A632B107D9F711E0A6E2B1E001C01D92C6
:10006000AA3AB107E1F74BD0C1C0CACF1092C50080
:1000700083E38093C40088ED8093C100089580E6F7
:1000800080937C0080E880937A00089580917A00C4
:10009000806480937A0080917A0084FFFCCF809105
:1000A000790090E008959091280197FD15C09091F6
:1000B000A901E92FF0E0E75DFE4F80839F5F9093F9
:1000C000A901809128018F5F809328018091A90167
:1000D000803811F41092A90108951F93CF93DF93F4
:1000E000EC0110E002C0DFDF1F5FFE01E10FF11D38
:1000F00080818823C1F7DF91CF911F91089580E11E
:1001000087B918B8B3DFBBDF789480E091E0E5DF12
:1001100081E68093C600809128018823E1F7FFCF14
:100120001F920F920FB60F9211242F938F939F93CC
:10013000EF93FF9380912801882311F18091A90109
:100140002091280190E0821B910997FF08C0E0915F
:10015000A90180912801F0E0E058FF4F05C0E0912F
:10016000A90180912801F0E0E81BF109E75DFE4F4D
:100170009081809128018150809328019093C6003E
:10018000FF91EF919F918F912F910F900FBE0F9044
:100190001F9018951F920F920FB60F9211242F9354
:1001A0003F934F935F936F937F938F939F93AF93FF
:1001B000BF93EF93FF938091C600833731F480E0C3
:1001C00091E08BDF81E68093C600FF91EF91BF91B4
:1001D000AF919F918F917F916F915F914F913F91DF
:1001E0002F910F900FBE0F901F901895F894FFCF8E
:1001F0006D706C69747564652C38362C3131332C14
:100200003139332C3133302C37352C39322C3131D4
:06021000372C3834000019
:00000001FF
