:1000000019C033C032C031C030C02FC02EC02DC087
:100010002CC02BC02AC029C028C027C026C025C09C
:1000200024C023C055C221C0F0C11FC01EC01DC0C6
:100030001CC01BC011241FBECFEFD2E0DEBFCDBF5E
:1000400011E0A0E0B1E0E8E2FBE002C005900D9213
:10005000A83CB107D9F712E0A8ECB1E001C01D92AD
:10006000AC34B107E1F702D05DC5CACFDF93CF93BF
:10007000CDB7DEB7A4970FB6F894DEBF0FBECDBFE5
:100080008AE290E02FEFFC01208384E290E02FEFE2
:10009000FC01208387E290E02FEFFC01208388E2BF
:1000A00090E0FC01108285E290E0FC01108211D109
:1000B00025D1789480E091E05AD186EC90E02DE053
:1000C000FC012083F4C081E291E051D186EC90E004
:1000D0002DE0FC01208300008091CA018823E1F714
:1000E0001A821982DEC08BE291E041D186EC90E069
:1000F0002DE0FC01208300008091CA018823E1F7F4
:100100008FEF90E09C838B831E821D821FC007D1DE
:1001100098878F832F8138858B819C812817390799
:100120002CF48F8198859C838B830BC02F8138851D
:100130008D819E818217930724F48F8198859E83F9
:100140008D8385E290E02D81FC0120838091C801A0
:100150009091C9010097D9F600D000D000D08DB79A
:100160009EB701969E01255E3F4FFC01318320839F
:1001700024E331E0FC01338322832B813C81FC01A9
:100180003583248300D28DB79EB706960FB6F894B8
:100190009EBF0FBE8DBFCE014B96E9D086EC90E09E
:1001A0002DE0FC01208300008091CA018823E1F743
:1001B00000D000D000D08DB79EB701969E01255E7D
:1001C0003F4FFC01318320832CE331E0FC0133837A
:1001D00022832D813E81FC0135832483D4D18DB7C8
:1001E0009EB706960FB6F8949EBF0FBE8DBFCE0188
:1001F0004B96BDD086EC90E02DE0FC012083000002
:100200008091CA018823E1F72B813C818D819E81F9
:10021000820F931F99230CF40196959587959A87E1
:10022000898789819A81880F991F9E012F5F3F4F8F
:10023000820F931F0A9629853A85FC01318320831A
:1002400000D000D000D08DB79EB701969E01255EEC
:100250003F4FFC013183208324E431E0FC013383F0
:10026000228329853A85FC01358324838CD18DB77F
:100270009EB706960FB6F8949EBF0FBE8DBFCE01F7
:100280004B9675D086EC90E02DE0FC0120830000B9
:100290008091CA018823E1F789819A8101969A8326
:1002A000898389819A81181619060CF01CCF8091D8
:1002B000C8019091C901009709F005CF87E290E04D
:1002C0002FEFFC01208388E290E0FC011082000007
:1002D000EECFDF93CF93CDB7DEB785EC90E0FC0196
:1002E000108284EC90E023E3FC01208381EC90E019
:1002F00028EDFC012083CF91DF910895DF93CF9308
:10030000CDB7DEB78CE790E020E6FC0120838AE7DA
:1003100090E020E8FC012083CF91DF910895DF93E6
:10032000CF9300D0CDB7DEB78AE790E02AE730E080
:10033000F90120812064FC01208300008AE790E01D
:10034000FC018081882F90E0807190700097B1F35C
:1003500089E790E0FC018081882F90E09A8389836F
:1003600089819A810F900F90CF91DF910895DF934B
:10037000CF9300D00F92CDB7DEB79B838A831982CB
:100380000DC08981882F90E02A813B81820F931FC5
:10039000FC01808114D089818F5F89838981882FB6
:1003A00090E02A813B81820F931FFC01808188238A
:1003B00041F70F900F900F90CF91DF910895DF9349
:1003C000CF930F92CDB7DEB789838091CA0188237E
:1003D000C4F020914B02822F90E085539E4F3981CB
:1003E000FC013083822F8F5F80934B028091CA0182
:1003F0008F5F8093CA0180914B02803811F4109274
:100400004B020F90CF91DF9108951F920F920FB67C
:100410000F9211242F933F934F935F938F939F934A
:10042000EF93FF93DF93CF930F92CDB7DEB7809119
:10043000CA018823E9F180914B02282F30E0809196
:10044000CA01882F90E0A901481B590BCA019923C2
:10045000A4F480914B02282F30E08091CA01882FAC
:1004600090E0F901E81BF90BCF0180589F4F8553AD
:100470009E4FFC018081898311C080914B02282FFF
:1004800030E08091CA01882F90E0A901481B590BE8
:10049000CA0185539E4FFC01808189838091CA01E6
:1004A00081508093CA0186EC90E02981FC01208371
:1004B0000F90CF91DF91FF91EF919F918F915F917D
:1004C0004F913F912F910F900FBE0F901F90189555
:1004D0001F920F920FB60F9211242F933F934F93B9
:1004E0005F936F937F938F939F93AF93BF93EF939C
:1004F000FF93DF93CF930F92CDB7DEB786EC90E0FA
:10050000FC018081898385E290E021E0FC01208369
:100510008981833751F48CE491E029DF81E090E018
:100520009093C9018093C80115C08981863721F451
:100530008AE691E01CDF0EC08981883741F486E8A5
:1005400091E015DF1092C9011092C80103C08FE934
:1005500091E00DDF86EC90E020E2FC0120830F901B
:10056000CF91DF91FF91EF91BF91AF919F918F91CB
:100570007F916F915F914F913F912F910F900FBE9F
:100580000F901F901895AEE0B0E0E8ECF2E0A1C249
:100590000D891E8986E08C831A8309838FEF9FE77C
:1005A0009E838D839E01275E3F4FCE0101966F890A
:1005B000788DA90108D0EF81F885E00FF11F108236
:1005C0002E96E4E0A2C2ACE0B0E0E8EEF2E073C246
:1005D0006C011B018A01FC0117821682838181FF55
:1005E000C4C12E010894411C511CF6019381F101F4
:1005F00093FD859193FF81911F01882309F4B1C177
:10060000853239F493FD859193FF81911F018532E5
:1006100021F490E0B601C5D1E8CFEE24FF2420E01C
:100620002032B0F48B3269F08C3228F4803251F0F1
:10063000833271F40BC08D3239F0803349F421607C
:100640002CC02260246029C0286027C0206125C0FA
:1006500027FD2CC0382F30533A3098F426FF08C0BD
:100660008E2D880FE82EEE0CEE0CE80EE30E15C072
:100670008F2D880FF82EFF0CFF0CF80EF30E206262
:100680000CC08E3221F426FD6CC1206406C08C366D
:1006900011F4206802C0883649F4F10193FD859178
:1006A00093FF81911F01882309F0BACF982F9554A9
:1006B000933018F09052933028F40C5F1F4FFFE3F3
:1006C000F9830DC0833631F0833771F0833509F03B
:1006D0005CC021C0F801808189830E5F1F4F4201F9
:1006E00071E0A72EB12C15C062E0662E712C600E51
:1006F000711EF8018080918026FF03C06E2D70E08E
:1007000002C06FEF7FEFC4012C8740D15C018301F1
:100710002C852F7716C052E0652E712C600E711E4D
:10072000F8018080918026FF03C06E2D70E002C02A
:100730006FEF7FEFC4012C871ED15C012C852068F0
:10074000830123FD1EC007C080E290E0B6012C8724
:1007500028D1FA942C858F2D90E0A816B906A0F325
:1007600010C0F40127FD859127FF81914F0190E092
:10077000B6012C8716D12C85F110FA940894A108A3
:10078000B108A114B10469F7E9C0843611F08936C3
:1007900041F527FF08C0F801608171818281938152
:1007A0000C5F1F4F09C0F80160817181882777FDB8
:1007B0008095982F0E5F1F4F4FE6B42EB22297FF01
:1007C00009C090958095709561957F4F8F4F9F4F91
:1007D000F0E8BF2AA2012AE030E00FD1782E741889
:1007E00044C0853731F43FEEB32EB2222AE030E028
:1007F00025C099EFB92EB2228F36C1F0803720F490
:10080000883509F0AEC00DC0803721F0883709F077
:10081000A8C002C020E1B22AB4FE0BC084E0B82A0E
:1008200008C0B4FE09C0E6E0BE2A06C028E030E0F9
:1008300005C020E130E002C020E132E0B7FE08C090
:10084000F80160817181828193810C5F1F4F07C025
:10085000F8016081718180E090E00E5F1F4FA2017E
:10086000CCD0782E7418FFE7BF22B6FE0BC02EEF57
:10087000B2227E1438F4B4FE07C0B2FC05C08FEE7D
:10088000B82202C0A72C01C0AE2C8B2D90E0B4FE84
:100890000DC0FE01E70DF11D2081203319F4E9EEB2
:1008A000BE2209C0A394B2FE06C004C08678907030
:1008B000009709F0A3948B2C9924B3FC13C0B0FECD
:1008C0000EC0AF1428F4E72CEF0CEA18AF2C07C0C9
:1008D000E72C05C080E290E0B60163D0A394AF148A
:1008E000C8F304C0AF1410F4FA1801C0FF2484FE4A
:1008F0000EC080E390E0B60154D082FE1DC081FEA0
:1009000003C088E590E010C088E790E00DC0C40106
:1009100086789070009781F081FC02C080E201C06F
:100920008BE2B7FC8DE290E0B6013BD005C080E3DE
:1009300090E0B60136D0EA947E14C8F37A94F201BE
:10094000E70DF11D808190E0B6012BD07720B1F743
:1009500005C080E290E0B60124D0FA94FF20C9F7E8
:1009600044CEF6012681378102C02FEF3FEFC90147
:100970002C96E2E1BCC0FC01059061507040011072
:10098000D8F7809590958E0F9F1F0895FC016150B8
:10099000704001900110D8F7809590958E0F9F1FA1
:1009A00008950F931F93CF93DF938C01EB018B81FD
:1009B00081FF1BC082FF0DC02E813F818C819D81F4
:1009C0002817390764F4E881F9810193F983E883F2
:1009D00006C0E885F985802F0995009731F48E814E
:1009E0009F8101969F838E8302C00FEF1FEFC80186
:1009F000DF91CF911F910F910895FA01AA27283016
:100A000051F1203181F1E8946F936E7F6E5F7F4FDB
:100A10008F4F9F4FAF4FB1E03ED0B4E03CD0670F57
:100A2000781F891F9A1FA11D680F791F8A1F911DAA
:100A3000A11D6A0F711D811D911DA11D20D009F4FA
:100A400068943F912AE0269F11243019305D31933C
:100A5000DEF6CF010895462F4770405D4193B3E025
:100A60000FD0C9F7F6CF462F4F70405D4A3318F0CC
:100A7000495D31FD4052419302D0A9F7EACFB4E07D
:100A8000A6959795879577956795BA95C9F7009735
:100A90006105710508959B01AC010A2E06945795D6
:100AA000479537952795BA95C9F7620F731F841F2D
:100AB000951FA01D08952F923F924F925F926F92C3
:100AC0007F928F929F92AF92BF92CF92DF92EF92DE
:100AD000FF920F931F93CF93DF93CDB7DEB7CA1B5F
:100AE000DB0B0FB6F894DEBF0FBECDBF09942A888A
:100AF000398848885F846E847D848C849B84AA8432
:100B0000B984C884DF80EE80FD800C811B81AA81BE
:100B1000B981CE0FD11D0FB6F894DEBF0FBECDBF89
:080B2000ED010895F894FFCFE8
:100B280052656164793A20436F656E204D63436C6A
:100B3800656C6C616E642034323336333930310A77
:100B4800007377656570696E670A00666F726C6F0F
:100B58006F700A006D696E2025640A006D61782047
:100B680025640A006176672025640A00733A2045E7
:100B78006E746572696E6720417564696F2053777A
:100B8800656570204D6F64650A00763A20456E747D
:100B98006572696E6720566F6C746D657465722036
:100BA8004D6F64650A00783A2053746F7070696EEF
:100BB8006720417564696F2053776565700A00493D
:100BC8006E76616C696420436F6D6D616E643A2066
:100BD800456E746572696E672053706C6173682026
:080BE8004D6F64650A0D000069
:00000001FF
