:1000000019C033C032C031C030C02FC02EC02DC087
:100010002CC02BC02AC029C028C027C026C025C09C
:1000200024C023C007C121C0A2C01FC01EC01DC064
:100030001CC01BC011241FBECFEFD2E0DEBFCDBF5E
:1000400011E0A0E0B1E0ECEEF2E002C005900D920C
:10005000A03AB107D9F711E0A0EAB1E001C01D92C2
:10006000A23EB107E1F702D03FC1CACFDF93CF93E1
:10007000CDB7DEB78AE290E02FEFFC01208384E267
:1000800090E02FEFFC01208387E290E02FEFFC014E
:1000900020830AD0789486EC90E020E2FC01208353
:1000A00080E091E016D0FFCFDF93CF93CDB7DEB7DE
:1000B00085EC90E0FC01108284EC90E021E8FC01EA
:1000C000208381EC90E028EDFC012083CF91DF912B
:1000D0000895DF93CF9300D00F92CDB7DEB79B8307
:1000E0008A8319820DC08981882F90E02A813B8103
:1000F000820F931FFC01808114D089818F5F8983D7
:100100008981882F90E02A813B81820F931FFC0117
:100110008081882341F70F900F900F90CF91DF914E
:100120000895DF93CF930F92CDB7DEB78983809187
:10013000A0018034C0F42091E101822F90E08F551E
:100140009E4F3981FC013083822F8F5F8093E101C4
:100150008091A0018F5F8093A0018091E1018034A4
:1001600011F41092E1010F90CF91DF9108951F9249
:100170000F920FB60F9211242F933F934F935F93DB
:100180008F939F93EF93FF93DF93CF930F92CDB70E
:10019000DEB78091A0018823E9F18091E101282F49
:1001A00030E08091A001882F90E0A901481B590BF5
:1001B000CA019923A4F48091E101282F30E08091B5
:1001C000A001882F90E0F901E81BF90BCF01805CBA
:1001D0009F4F8F559E4FFC018081898311C0809174
:1001E000E101282F30E08091A001882F90E0A90143
:1001F000481B590BCA018F559E4FFC018081898392
:100200008091A00181508093A00186EC90E029812B
:10021000FC0120830F90CF91DF91FF91EF919F918F
:100220008F915F914F913F912F910F900FBE0F9043
:100230001F9018951F920F920FB60F9211242F93B3
:100240003F934F935F936F937F938F939F93AF935E
:10025000BF93EF93FF93DF93CF930F92CDB7DEB7AA
:1002600086EC90E0FC018081898385E290E021E0CA
:10027000FC0120838981833749F482E291E029DF00
:1002800088E290E020E1FC01208315C08981863757
:1002900021F481E491E01DDF0EC08981883741F4AB
:1002A0008EE591E016DF88E290E0FC01108203C049
:1002B00088E791E00EDF86EC90E020E2FC012083ED
:1002C0000F90CF91DF91FF91EF91BF91AF919F91EF
:1002D0008F917F916F915F914F913F912F910F90EF
:0C02E0000FBE0F901F901895F894FFCFF0
:1002EC0052656164793A20436F656E204D63436CAF
:1002FC00656C6C616E642034323336333930310ABC
:10030C000D00733A20456E746572696E67204175F5
:10031C0064696F205377656570204D6F64650A0DB5
:10032C0000763A20456E746572696E6720566F6C64
:10033C00746D65746572204D6F64650A0D00783AB2
:10034C002053746F7070696E6720417564696F20FB
:10035C0053776565700A0D00496E76616C6964208F
:10036C00436F6D6D616E643A20456E746572696E93
:10037C00672053706C617368204D6F64650A0D00C3
:00000001FF
