:1000000019C033C032C031C030C02FC02EC02DC087
:100010002CC02BC02AC029C028C027C026C025C09C
:1000200024C023C0D0C121C06BC11FC01EC01DC0D1
:100030001CC01BC011241FBECFEFD2E0DEBFCDBF5E
:1000400011E0A0E0B1E0E0E8F4E002C005900D921C
:10005000A03AB107D9F711E0A0EAB1E001C01D92C2
:10006000A43EB107E1F702D009C2CACFDF93CF9314
:10007000CDB7DEB76C970FB6F894DEBF0FBECDBF1D
:100080008AE290E02FEFFC01208384E290E02FEFE2
:10009000FC01208387E290E02FEFFC01208398D0C1
:1000A000ACD0789480E091E0DDD086EC90E020E266
:1000B000FC0120837BC087E290E02FEFFC012083CE
:1000C00088E290E020E1FC01208387E290E0FC01DF
:1000D0001082000086E290E0FC018081882F90E091
:1000E000807290700097B1F31A82198259C087E22A
:1000F00090E0FC01108286E290E0FC018081882F74
:1001000090E098878F838FEF90E09C838B831E8293
:100110001D821AC083D09A87898729853A858B8169
:100120009C81281739072CF489859A859C838B83B9
:100130000BC029853A858D819E818217930724F40F
:1001400089859A859E838D8386E290E0FC0180817B
:10015000282F30E08F81988528173907D9F22B8115
:100160003C818D819E81820F931F99230CF401960F
:10017000959587959C878B8789819A81880F991F90
:100180009E012F5F3F4F820F931F0C962B853C855E
:10019000FC013183208389819A8101969A83898326
:1001A00089819A81883091050CF4A1CF8091A001BA
:1001B0009091A101009709F07ECF87E290E02FEFA8
:1001C000FC01208388E290E0FC0110820000EECF69
:1001D000DF93CF93CDB7DEB785EC90E0FC011082C2
:1001E00084EC90E021E8FC01208381EC90E028ED94
:1001F000FC012083CF91DF910895DF93CF93CDB79A
:10020000DEB78CE790E020E6FC0120838AE790E0EF
:1002100020E8FC012083CF91DF910895DF93CF93F5
:1002200000D0CDB7DEB78AE790E020E4FC01208360
:1002300000008AE790E0FC018081882F90E08071C7
:1002400090700097B1F389E790E0FC018081882FDE
:1002500090E09A83898389819A810F900F90CF9142
:10026000DF910895DF93CF9300D00F92CDB7DEB723
:100270009B838A8319820DC08981882F90E02A810F
:100280003B81820F931FFC01808114D089818F5F95
:1002900089838981882F90E02A813B81820F931F77
:1002A000FC018081882341F70F900F900F90CF9130
:1002B000DF910895DF93CF930F92CDB7DEB7898397
:1002C0008091A2018034C0F42091E301822F90E05C
:1002D0008D559E4F3981FC013083822F8F5F809333
:1002E000E3018091A2018F5F8093A2018091E301DD
:1002F000803411F41092E3010F90CF91DF910895B3
:100300001F920F920FB60F9211242F933F934F938A
:100310005F938F939F93EF93FF93DF93CF930F920E
:10032000CDB7DEB78091A2018823E9F18091E30186
:10033000282F30E08091A201882F90E0A901481B6E
:10034000590BCA019923A4F48091E301282F30E0CE
:100350008091A201882F90E0F901E81BF90BCF01F1
:10036000805C9F4F8D559E4FFC018081898311C019
:100370008091E301282F30E08091A201882F90E046
:10038000A901481B590BCA018D559E4FFC01808164
:1003900089838091A20181508093A20186EC90E034
:1003A0002981FC0120830F90CF91DF91FF91EF9184
:1003B0009F918F915F914F913F912F910F900FBE21
:1003C0000F901F9018951F920F920FB60F92112445
:1003D0002F933F934F935F936F937F938F939F934D
:1003E000AF93BF93EF93FF93DF93CF930F92CDB76C
:1003F000DEB786EC90E0FC018081898385E290E0A5
:1004000021E0FC0120838981833751F482E291E06D
:1004100029DF81E090E09093A1018093A00115C0B5
:100420008981863721F481E491E01CDF0EC0898147
:10043000883741F48EE591E015DF1092A10110920A
:10044000A00103C088E791E00DDF86EC90E020E298
:10045000FC0120830F90CF91DF91FF91EF91BF912D
:10046000AF919F918F917F916F915F914F913F914C
:100470002F910F900FBE0F901F901895F894FFCFFB
:1004800052656164793A20436F656E204D63436C19
:10049000656C6C616E642034323336333930310A26
:1004A0000D00733A20456E746572696E6720417560
:1004B00064696F205377656570204D6F64650A0D20
:1004C00000763A20456E746572696E6720566F6CCF
:1004D000746D65746572204D6F64650A0D00783A1D
:1004E0002053746F7070696E6720417564696F2066
:1004F00053776565700A0D00496E76616C696420FA
:10050000436F6D6D616E643A20456E746572696EFD
:10051000672053706C617368204D6F64650A0D002D
:00000001FF
