:1000000019C033C032C031C030C02FC02EC02DC087
:100010002CC02BC02AC029C028C027C026C025C09C
:1000200024C023C0A6C021C06AC01FC01EC01DC0FE
:100030001CC01BC011241FBECFEFD2E0DEBFCDBF5E
:1000400011E0A0E0B1E0EAE3FBE002C005900D9210
:10005000AA39B107D9F712E0AAE9B1E001C01D92AF
:10006000AE31B107E1F799D166C5CACF1092C5008C
:1000700083E38093C40088ED8093C100089580E6F7
:1000800080937C0080E880937A00089580917A00C4
:10009000806480937A0080917A0084FFFCCF809105
:1000A000790090E0089590919C0197FD15C0909182
:1000B0001D02E92FF0E0E356FE4F80839F5F90938F
:1000C0001D0280919C018F5F80939C0180911D0295
:1000D000803811F410921D0208951F93CF93DF937F
:1000E000EC0110E002C0DFDF1F5FFE01E10FF11D38
:1000F00080818823C1F7DF91CF911F9108951F92CE
:100100000F920FB60F9211242F938F939F93EF931B
:10011000FF9380919C01882311F180911D02209111
:100120009C0190E0821B910997FF08C0E0911D029D
:1001300080919C01F0E0E058FF4F05C0E0911D0266
:1001400080919C01F0E0E81BF109E356FE4F90819D
:1001500080919C01815080939C019093C600FF91F7
:10016000EF919F918F912F910F900FBE0F901F9045
:1001700018951F920F920FB60F9211242F933F9351
:100180004F935F936F937F938F939F93AF93BF939F
:10019000EF93FF938091C60091E095B9833759F4AE
:1001A00080E091E09ADF81E090E090939B01809362
:1001B0009A0181E610C0863721F48EE191E08DDF4F
:1001C00009C0883751F48AE391E087DF10929B01E0
:1001D00010929A0180E28093C600FF91EF91BF9147
:1001E000AF919F918F917F916F915F914F913F91CF
:1001F0002F910F900FBE0F901F901895DF93CF9304
:100200000F92CDB7DEB7198204C0000089818F5FDD
:10021000898389818830C8F30F90CF91DF91089549
:1002200014B88BB18F7C8BB9E9DF83B19FEF94B9A0
:100230009BB190639BB908951F93182FF1DF282F6E
:1002400030E02370307021153105C1F315B98BB141
:100250008F7A8BB9D3DF8BB180658BB91F910895ED
:100260001F93182FDDDF282F30E023703070211509
:100270003105C1F315B98BB1877A8BB9BFDF8BB16B
:1002800088658BB91F9108952A9889EF90E00197AE
:10029000F1F700C000002A9A2F9880E0E1DF80E0AB
:1002A000DFDF82E4C9DF82E0DBDF80E0D9DF83E4E7
:1002B000C3DF80E0D5DF80E0D3DF80E4BDDF82E014
:1002C000CFDF80E0CDDF81E4B7DF82E0C9DF80E00F
:1002D000C7DF82E2B1DF8CE9AFDF81E8ADDF0895EF
:1002E000BFDF80ECA9DF08958052FADF0895DF9325
:1002F000CF930F92CDB7DEB79983F6DF9981892F1F
:10030000F3DF84E299DF0F90CF91DF910895CF93CF
:10031000DF9380E090E0EBDFC8E0D0E080E0E0DF5A
:100320002197E1F7DF91CF910895CF93DF9380E09C
:1003300090E1DDDFC0E0D8E080E0D2DF2197E1F797
:10034000DF91CF910895CF93DF9382E090E0CFDFEC
:10035000C0E8D0E080E0C4DF2197E1F7DF91CF91E2
:100360000895EF92FF92CF93DF93E82EE7017E018D
:10037000F92EE70101C0B8DF89918823E1F7DF9109
:10038000CF91FF90EF90089570E0660F771F9B016B
:10039000280F311DC901ABDF08952F923F924F9274
:1003A0005F926F927F928F929F92AF92BF92CF9205
:1003B000DF92EF92FF920F931F93DF93CF93CDB70E
:1003C000DEB72A970FB6F894DEBF0FBECDBF8FEF12
:1003D0008AB984B987B98BB18C6F8BB918B815B845
:1003E00053DF95DFA2DFAFDF80E060E0CDDF83E5A4
:1003F00091E0B7DF81E678DF39DE41DE789480E690
:1004000091E06BDE8DE08093C6008E010F5F1F4F81
:1004100071E8872E71E0972E6DE0B62E59E8652EB3
:1004200051E0752E41E9442E41E0542E32E0232E56
:10043000312CAA24AA947AC029DE8C159D0524F0BB
:10044000E816F9061CF003C06C0101C07C01E5B898
:1004500080919A0190919B01009771F700D000D094
:1004600000D0EDB7FEB73196ADB7BEB712961C936C
:100470000E93119793828282D582C4828DD08DB7DC
:100480009EB706960FB6F8949EBF0FBE8DBFC801EB
:1004900024DEB092C60080919C018823E1F700D051
:1004A00000D000D0EDB7FEB73196ADB7BEB712960B
:1004B0001C930E93119773826282F582E4826CD052
:1004C0008DB79EB706960FB6F8949EBF0FBE8DBF30
:1004D000C80103DEB092C60080919C018823E1F739
:1004E00000D000D000D0EDB7FEB73196ADB7BEB7A3
:1004F00012961C930E93119753824282C6018E0D61
:100500009F1DB10122D07583648346D08DB79EB7FD
:1005100006960FB6F8949EBF0FBE8DBFC801DDDDF5
:10052000B092C60080919C018823E1F780919A01E6
:1005300090919B01009731F0EE24FF242FEFC22E03
:10054000D12C86CFA7B818B8F1CF97FB092E072674
:100550000AD077FD04D00CD006D000201AF4709594
:1005600061957F4F0895F6F7909581959F4F089577
:10057000AA1BBB1B51E107C0AA1FBB1FA617B707C9
:1005800010F0A61BB70B881F991F5A95A9F78095E5
:100590009095BC01CD010895AEE0B0E0E1EDF2E050
:1005A000A1C20D891E8986E08C831A8309838FEF8F
:1005B0009FE79E838D839E01275E3F4FCE0101966C
:1005C0006F89788DA90108D0EF81F885E00FF11FC0
:1005D00010822E96E4E0A2C2ACE0B0E0E1EFF2E0DF
:1005E00073C26C011B018A01FC0117821682838190
:1005F00081FFC4C12E010894411C511CF601938156
:10060000F10193FD859193FF81911F01882309F4E6
:10061000B1C1853239F493FD859193FF81911F011A
:10062000853221F490E0B601C5D1E8CFEE24FF2455
:1006300020E02032B0F48B3269F08C3228F4803222
:1006400051F0833271F40BC08D3239F0803349F4AC
:1006500021602CC02260246029C0286027C020614E
:1006600025C027FD2CC0382F30533A3098F426FF90
:1006700008C08E2D880FE82EEE0CEE0CE80EE30E6F
:1006800015C08F2D880FF82EFF0CFF0CF80EF30EFF
:1006900020620CC08E3221F426FD6CC1206406C09D
:1006A0008C3611F4206802C0883649F4F10193FDBC
:1006B000859193FF81911F01882309F0BACF982F6C
:1006C0009554933018F09052933028F40C5F1F4FDC
:1006D000FFE3F9830DC0833631F0833771F0833542
:1006E00009F05CC021C0F801808189830E5F1F4F33
:1006F000420171E0A72EB12C15C062E0662E712C6C
:10070000600E711EF8018080918026FF03C06E2D5F
:1007100070E002C06FEF7FEFC4012C8740D15C0115
:1007200083012C852F7716C052E0652E712C600E48
:10073000711EF8018080918026FF03C06E2D70E04D
:1007400002C06FEF7FEFC4012C871ED15C012C85A6
:100750002068830123FD1EC007C080E290E0B6013F
:100760002C8728D1FA942C858F2D90E0A816B906F5
:10077000A0F310C0F40127FD859127FF81914F015F
:1007800090E0B6012C8716D12C85F110FA940894CC
:10079000A108B108A114B10469F7E9C0843611F0C9
:1007A000893641F527FF08C0F80160817181828197
:1007B00093810C5F1F4F09C0F80160817181882708
:1007C00077FD8095982F0E5F1F4F4FE6B42EB22213
:1007D00097FF09C090958095709561957F4F8F4FD9
:1007E0009F4FF0E8BF2AA2012AE030E00FD1782E17
:1007F000741844C0853731F43FEEB32EB2222AE09C
:1008000030E025C099EFB92EB2228F36C1F0803783
:1008100020F4883509F0AEC00DC0803721F088374C
:1008200009F0A8C002C020E1B22AB4FE0BC084E0E7
:10083000B82A08C0B4FE09C0E6E0BE2A06C028E017
:1008400030E005C020E130E002C020E132E0B7FE38
:1008500008C0F80160817181828193810C5F1F4F14
:1008600007C0F8016081718180E090E00E5F1F4F4A
:10087000A201CCD0782E7418FFE7BF22B6FE0BC0C1
:100880002EEFB2227E1438F4B4FE07C0B2FC05C0CD
:100890008FEEB82202C0A72C01C0AE2C8B2D90E0A9
:1008A000B4FE0DC0FE01E70DF11D2081203319F4C7
:1008B000E9EEBE2209C0A394B2FE06C004C0867849
:1008C0009070009709F0A3948B2C9924B3FC13C06B
:1008D000B0FE0EC0AF1428F4E72CEF0CEA18AF2CD2
:1008E00007C0E72C05C080E290E0B60163D0A39476
:1008F000AF14C8F304C0AF1410F4FA1801C0FF24F9
:1009000084FE0EC080E390E0B60154D082FE1DC08C
:1009100081FE03C088E590E010C088E790E00DC03C
:10092000C40186789070009781F081FC02C080E25B
:1009300001C08BE2B7FC8DE290E0B6013BD005C070
:1009400080E390E0B60136D0EA947E14C8F37A943E
:10095000F201E70DF11D808190E0B6012BD07720E8
:10096000B1F705C080E290E0B60124D0FA94FF20F0
:10097000C9F744CEF6012681378102C02FEF3FEF41
:10098000C9012C96E2E1BCC0FC01059061507040A9
:100990000110D8F7809590958E0F9F1F0895FC0148
:1009A0006150704001900110D8F7809590958E0F9E
:1009B0009F1F08950F931F93CF93DF938C01EB013B
:1009C0008B8181FF1BC082FF0DC02E813F818C81F6
:1009D0009D812817390764F4E881F9810193F9832F
:1009E000E88306C0E885F985802F0995009731F4E2
:1009F0008E819F8101969F838E8302C00FEF1FEF30
:100A0000C801DF91CF911F910F910895FA01AA2794
:100A1000283051F1203181F1E8946F936E7F6E5F41
:100A20007F4F8F4F9F4FAF4FB1E03ED0B4E03CD0EF
:100A3000670F781F891F9A1FA11D680F791F8A1FD2
:100A4000911DA11D6A0F711D811D911DA11D20D039
:100A500009F468943F912AE0269F11243019305DF3
:100A60003193DEF6CF010895462F4770405D4193E4
:100A7000B3E00FD0C9F7F6CF462F4F70405D4A3331
:100A800018F0495D31FD4052419302D0A9F7EACFF9
:100A9000B4E0A6959795879577956795BA95C9F728
:100AA00000976105710508959B01AC010A2E06941B
:100AB0005795479537952795BA95C9F7620F731FD4
:100AC000841F951FA01D08952F923F924F925F9211
:100AD0006F927F928F929F92AF92BF92CF92DF924E
:100AE000EF92FF920F931F93CF93DF93CDB7DEB7B3
:100AF000CA1BDB0B0FB6F894DEBF0FBECDBF099447
:100B00002A88398848885F846E847D848C849B849D
:100B1000AA84B984C884DF80EE80FD800C811B81AB
:100B2000AA81B981CE0FD11D0FB6F894DEBF0FBEDA
:0A0B3000CDBFED010895F894FFCF4A
:100B3A006D706C69747564652C352C31322C3336C2
:100B4A002C322C342C392C34372C32353400763A6A
:100B5A0020456E746572696E6720566F6C746D6598
:100B6A00746572204D6F64650A00783A2053746F79
:100B7A007070696E6720417564696F205377656587
:100B8A00700A0067726F757020323320776F6F00BA
:100B9A0052656164793A20436F656E204D63436CF8
:100BAA00656C6C616E642034323336333930310A05
:100BBA00006D696E2025640A006D61782025640A3B
:0A0BCA00006176672025640A000030
:00000001FF
